:020000020000FC
:1000000000C008E00EBF0FEF0DBF03E004B9289851
:10001000299852985A9800E00093C50007E600938B
:10002000C40008E00093C10006E00093C20003E0B2
:1000300005BDE4EBF1E0A9D0289861D0ECECF1E04B
:10004000A4D08CE790E050D06FD059D073D006B5D3
:100050001FE0019FC00108EE13E0800F911F56D0F2
:100060000197E9F7289A8DE390E03ED080E090E098
:100070004A9903C04BD00196FBCF289840D08F936C
:100080009F93EAEDF1E087D05DD0EAEEF1E07DD01C
:100090009F918F9100E018EC8117900730F001E0FC
:1000A00010E98117900750F012C0E0EFF1E06DD039
:1000B0008DE390E019D033D022D011C0E2E0F2E01D
:1000C00064D087E690E010D02FD019D008C0EEE0C1
:1000D000F2E05BD087E391E007D029D010D0EAE1CD
:1000E000F2E053D02AD0A8CF00E4009380000BE0C8
:1000F00000938100909389008093880008950027E1
:100100000093800000938100299808958F939F9316
:100110008AE99FE00197F1F79F918F91089504E696
:10012000F5DF0A95E9F70895FADFF9DF0895FCDFB6
:10013000FBDF0895FCDFF3DF089524E1F0DF2A956B
:10014000E9F70895222747E250E10ED043E058EE48
:100150000BD040E054E608D040E05AE005D021E062
:1001600040E051E001D0089533278517940720F02F
:10017000851B940B3395F9CF332311F4222321F0FF
:1001800021E000E3030F0DD0089505D00DE009D064
:100190000AE007D008950591002311F002D0FBCFAB
:1001A00008956F936091C00065FFFCCF0093C60077
:1001B0006F9108955265616374696F6E2047616D38
:1001C000652052656164792E2E2E000047657420EB
:1001D00072656164792E2E2E000052656163746928
:1001E0006F6E2054696D653A2000206D7300000029
:1001F000F09F94A520457863656C6C656E74210052
:100200000000F09F9FA120476F6F64000000F09FE7
:1002100094B420536C6F770000002D2D2D2D2D2DC3
:100220002D2D2D2D2D2D2D2D2D2D2D2D2D00000085
:00000001FF
